:0400000007EF00F016
:10000800128248ED01F0BAEF01F0700ED36E0F0EB8
:10001800C16E9296929492829290030E096E980EF7
:10002800E82EFED7092EFCD79492630EB36EC00E4D
:10003800B26E880EB16E6F0EBC6E780EBB6E090E76
:10004800BA6EA192A082F28CF28EB180F00E936EFD
:10005800000E956E000E8C6E200EAC6E800EAB6E90
:10006800000EB86E0C0EAF6E900ECD6EF19E020EA5
:100078000A6E040E096EBA0EE82EFED7092EFCD7BA
:100088000A2EFAD700D0F290F286000E8A6E80907F
:1000980080B202D080968090000E116E000E106E15
:1000A800040EBD6E000ECF6E000ECE6E9E94000E36
:1000B8008C6E8C80060EE82EFED700D08C9082A421
:1000C800FED7CD809EA4FED7CD90BECF01F0BFCF86
:1000D80002F0000E046E3A0E036E74EC01F001504B
:1000E8000B6E140E0B600BD0070E0F6ED00E0E6E3B
:1000F800010E116E0A0E0B6002D0010E106E040E76
:10010800BD6E000ECF6E000ECE6E9E94100E8C6EDD
:100118008C82060EE82EFED700D08C9282A4FED7E1
:10012800CD809EA4FED7CD90BECF01F0BFCF02F008
:10013800000E046E3A0E036E74EC01F001500B6E63
:10014800140E0B600BD0090E0F6E600E0E6E010EB2
:10015800116E0A0E0B6002D0010E106E040EBD6EF9
:10016800000ECF6E000ECE6E9E94200E8C6E8C8488
:10017800060EE82EFED700D08C9482A4FED7CD8040
:100188009EA4FED7CD90BECF01F0BFCF02F0000EE7
:10019800046E3A0E036E74EC01F001500B6E140EEF
:1001A8000B600BD00E0E0F6E100E0E6E010E116E40
:1001B8000A0E0B6002D0010E106E040EBD6E000E0A
:1001C800CF6E000ECE6E9E94300E8C6E8C86060E10
:1001D800E82EFED700D08C9682A4FED7CD809EA4B0
:1001E800FED7CD90BECF01F0BFCF02F0000E046E57
:1001F8003A0E036E74EC01F001500B6E140E0B6096
:100208000BD00F0E0F6EA00E0E6E010E116E0A0EA1
:100218000B6002D0010E106E1004D8A402D08084A6
:1002280001D080941150D8A404D00B0E0F6EB80ED4
:100238000E6E640E056E0B509DEC01F0300FE6EC6F
:1002480001F00A0E056E640E016E0B50D1EC01F040
:100258009DEC01F0300FE6EC01F00A0E016E0B5038
:10026800D1EC01F0300FE6EC01F00A0EE6EC01F0FB
:10027800060E0A6E130E096EAE0EE82EFED7092E74
:10028800FCD70A2EFAD704D70600A1A20DD0A19256
:10029800630EB36EC00EB26EC00E0E24BB6E630E3C
:1002A8000F20BC6E090EBA6EF2A018D0F00E81189D
:1002B800D8A480A212D080800ED0C80E00D0E82E1C
:1002C800FDD78086A60EE82EFED700D0A60EE82E13
:1002D800FED700D0809680B2F0D7F290129211002B
:1002E800000E066E000E056E03500410D8B41CD024
:1002F800010E076E04D0D89003360436072A04AEE0
:10030800FAD7D890053606360350015C04500258D7
:10031800D8A005D00350015E0450025A0580D89039
:1003280004320332072EEDD705C001F006C002F0F3
:100338001200066E000E086E0550D8B415D0010ED6
:10034800076E03D0D8900536072A05AEFBD7D8909C
:1003580008360550065CD8A003D00550065E088014
:10036800D8900532072EF3D708501200D80EF66E33
:10037800030EF76E000EF86E00EE0CF010EE04F0AF
:100388000900F5CFEEFFE550E150FAE1116A106A75
:1003980012901292000109EF00F0026E080E036E2F
:1003A800000E046ED89002340434046ED8900236DD
:1003B8000150045CD8A002D00150045E032EF2D78D
:1003C80004501200016EACA2FED701C0ADFF1200AE
:0403D8003000B80B2E
:020000040020DA
:08000000FFFFFFFFFFFFFFFF00
:020000040030CA
:0E00000000091F1EFF8181FF0FC00FE00F409F
:00000001FF
